{
  "contracts/Raffle.sol": {
    "Raffle": {
      "abi": [
        {
          "inputs": [
            {
              "internalType": "address",
              "name": "vrfCoordinatorAddress",
              "type": "address"
            },
            {
              "internalType": "bytes32",
              "name": "keyHash",
              "type": "bytes32"
            },
            {
              "internalType": "uint32",
              "name": "callbackGasLimit",
              "type": "uint32"
            },
            {
              "internalType": "uint64",
              "name": "subId",
              "type": "uint64"
            },
            {
              "internalType": "uint256",
              "name": "entranceFee",
              "type": "uint256"
            },
            {
              "internalType": "uint256",
              "name": "interval",
              "type": "uint256"
            }
          ],
          "stateMutability": "nonpayable",
          "type": "constructor"
        },
        {
          "inputs": [
            {
              "internalType": "address",
              "name": "have",
              "type": "address"
            },
            {
              "internalType": "address",
              "name": "want",
              "type": "address"
            }
          ],
          "name": "OnlyCoordinatorCanFulfill",
          "type": "error"
        },
        {
          "inputs": [],
          "name": "OnlySimulatedBackend",
          "type": "error"
        },
        {
          "inputs": [],
          "name": "Raffle__NotEnoughETH",
          "type": "error"
        },
        {
          "inputs": [],
          "name": "Raffle__NotOpen",
          "type": "error"
        },
        {
          "inputs": [],
          "name": "Raffle__TransferFailed",
          "type": "error"
        },
        {
          "anonymous": false,
          "inputs": [
            {
              "indexed": true,
              "internalType": "address",
              "name": "player",
              "type": "address"
            }
          ],
          "name": "RaffleEnter",
          "type": "event"
        },
        {
          "anonymous": false,
          "inputs": [
            {
              "indexed": true,
              "internalType": "uint256",
              "name": "requestId",
              "type": "uint256"
            }
          ],
          "name": "RaffleWinnerRequested",
          "type": "event"
        },
        {
          "anonymous": false,
          "inputs": [
            {
              "indexed": true,
              "internalType": "address",
              "name": "player",
              "type": "address"
            }
          ],
          "name": "WinnerPicked",
          "type": "event"
        },
        {
          "inputs": [
            {
              "internalType": "bytes",
              "name": "",
              "type": "bytes"
            }
          ],
          "name": "checkUpkeep",
          "outputs": [
            {
              "internalType": "bool",
              "name": "upkeepNeeeded",
              "type": "bool"
            },
            {
              "internalType": "bytes",
              "name": "",
              "type": "bytes"
            }
          ],
          "stateMutability": "view",
          "type": "function"
        },
        {
          "inputs": [],
          "name": "enterRaffle",
          "outputs": [],
          "stateMutability": "payable",
          "type": "function"
        },
        {
          "inputs": [],
          "name": "getEntranceFee",
          "outputs": [
            {
              "internalType": "uint256",
              "name": "",
              "type": "uint256"
            }
          ],
          "stateMutability": "view",
          "type": "function"
        },
        {
          "inputs": [],
          "name": "getLastWinner",
          "outputs": [
            {
              "internalType": "address",
              "name": "",
              "type": "address"
            }
          ],
          "stateMutability": "view",
          "type": "function"
        },
        {
          "inputs": [],
          "name": "getLatestTimestamp",
          "outputs": [
            {
              "internalType": "uint256",
              "name": "",
              "type": "uint256"
            }
          ],
          "stateMutability": "view",
          "type": "function"
        },
        {
          "inputs": [],
          "name": "getNumberOfPlayers",
          "outputs": [
            {
              "internalType": "uint256",
              "name": "",
              "type": "uint256"
            }
          ],
          "stateMutability": "view",
          "type": "function"
        },
        {
          "inputs": [
            {
              "internalType": "uint256",
              "name": "index",
              "type": "uint256"
            }
          ],
          "name": "getPlayer",
          "outputs": [
            {
              "internalType": "address",
              "name": "",
              "type": "address"
            }
          ],
          "stateMutability": "view",
          "type": "function"
        },
        {
          "inputs": [],
          "name": "getRaffleState",
          "outputs": [
            {
              "internalType": "enum Raffle.RaffleState",
              "name": "",
              "type": "uint8"
            }
          ],
          "stateMutability": "view",
          "type": "function"
        },
        {
          "inputs": [],
          "name": "owner",
          "outputs": [
            {
              "internalType": "address",
              "name": "",
              "type": "address"
            }
          ],
          "stateMutability": "view",
          "type": "function"
        },
        {
          "inputs": [
            {
              "internalType": "bytes",
              "name": "",
              "type": "bytes"
            }
          ],
          "name": "performUpkeep",
          "outputs": [],
          "stateMutability": "nonpayable",
          "type": "function"
        },
        {
          "inputs": [
            {
              "internalType": "uint256",
              "name": "requestId",
              "type": "uint256"
            },
            {
              "internalType": "uint256[]",
              "name": "randomWords",
              "type": "uint256[]"
            }
          ],
          "name": "rawFulfillRandomWords",
          "outputs": [],
          "stateMutability": "nonpayable",
          "type": "function"
        }
      ],
      "devdoc": {
        "kind": "dev",
        "methods": {},
        "version": 1
      },
      "evm": {
        "bytecode": {
          "linkReferences": {},
          "object": "6101606040523480156200001257600080fd5b50604051620015fa380380620015fa8339818101604052810190620000389190620002d5565b858073ffffffffffffffffffffffffffffffffffffffff1660808173ffffffffffffffffffffffffffffffffffffffff1681525050508573ffffffffffffffffffffffffffffffffffffffff1660a08173ffffffffffffffffffffffffffffffffffffffff16815250508460c081815250508363ffffffff1660e08163ffffffff16815250508267ffffffffffffffff166101008167ffffffffffffffff1681525050816101408181525050806101208181525050426000819055506000600360146101000a81548160ff021916908360018111156200011d576200011c62000371565b5b021790555033600260006101000a81548173ffffffffffffffffffffffffffffffffffffffff021916908373ffffffffffffffffffffffffffffffffffffffff160217905550505050505050620003a0565b600080fd5b600073ffffffffffffffffffffffffffffffffffffffff82169050919050565b6000620001a18262000174565b9050919050565b620001b38162000194565b8114620001bf57600080fd5b50565b600081519050620001d381620001a8565b92915050565b6000819050919050565b620001ee81620001d9565b8114620001fa57600080fd5b50565b6000815190506200020e81620001e3565b92915050565b600063ffffffff82169050919050565b6200022f8162000214565b81146200023b57600080fd5b50565b6000815190506200024f8162000224565b92915050565b600067ffffffffffffffff82169050919050565b620002748162000255565b81146200028057600080fd5b50565b600081519050620002948162000269565b92915050565b6000819050919050565b620002af816200029a565b8114620002bb57600080fd5b50565b600081519050620002cf81620002a4565b92915050565b60008060008060008060c08789031215620002f557620002f46200016f565b5b60006200030589828a01620001c2565b96505060206200031889828a01620001fd565b95505060406200032b89828a016200023e565b94505060606200033e89828a0162000283565b93505060806200035189828a01620002be565b92505060a06200036489828a01620002be565b9150509295509295509295565b7f4e487b7100000000000000000000000000000000000000000000000000000000600052602160045260246000fd5b60805160a05160c05160e0516101005161012051610140516111f1620004096000396000818161027e015261037b01526000610679015260006105740152600061059701526000610553015260006105170152600081816102bb015261030f01526111f16000f3fe60806040526004361061009c5760003560e01c80636e04ff0d116100645780636e04ff0d146101535780638da5cb5b14610191578063e55ae4e8146101bc578063f43b52cb146101f9578063f88649a114610224578063fd6673f51461024f5761009c565b806309bc33a7146100a1578063115cbaf5146100cc5780631fe543e3146100f75780632cfcc539146101205780634585e33b1461012a575b600080fd5b3480156100ad57600080fd5b506100b661027a565b6040516100c39190610aa7565b60405180910390f35b3480156100d857600080fd5b506100e16102a2565b6040516100ee9190610b39565b60405180910390f35b34801561010357600080fd5b5061011e60048036038101906101199190610ced565b6102b9565b005b610128610379565b005b34801561013657600080fd5b50610151600480360381019061014c9190610da4565b6104e8565b005b34801561015f57600080fd5b5061017a60048036038101906101759190610da4565b61065e565b604051610188929190610e94565b60405180910390f35b34801561019d57600080fd5b506101a66106c8565b6040516101b39190610f05565b60405180910390f35b3480156101c857600080fd5b506101e360048036038101906101de9190610f20565b6106ee565b6040516101f09190610f05565b60405180910390f35b34801561020557600080fd5b5061020e610736565b60405161021b9190610aa7565b60405180910390f35b34801561023057600080fd5b5061023961073f565b6040516102469190610f05565b60405180910390f35b34801561025b57600080fd5b50610264610769565b6040516102719190610aa7565b60405180910390f35b60007f0000000000000000000000000000000000000000000000000000000000000000905090565b6000600360149054906101000a900460ff16905090565b7f000000000000000000000000000000000000000000000000000000000000000073ffffffffffffffffffffffffffffffffffffffff163373ffffffffffffffffffffffffffffffffffffffff161461036b57337f00000000000000000000000000000000000000000000000000000000000000006040517f1cf993f4000000000000000000000000000000000000000000000000000000008152600401610362929190610f4d565b60405180910390fd5b6103758282610776565b5050565b7f00000000000000000000000000000000000000000000000000000000000000003410156103d3576040517f9894879b00000000000000000000000000000000000000000000000000000000815260040160405180910390fd5b6001808111156103e6576103e5610ac2565b5b600360149054906101000a900460ff16600181111561040857610407610ac2565b5b1415610440576040517f1425571c00000000000000000000000000000000000000000000000000000000815260040160405180910390fd5b6001339080600181540180825580915050600190039060005260206000200160009091909190916101000a81548173ffffffffffffffffffffffffffffffffffffffff021916908373ffffffffffffffffffffffffffffffffffffffff1602179055503373ffffffffffffffffffffffffffffffffffffffff167f0805e1d667bddb8a95f0f09880cf94f403fb596ce79928d9f29b74203ba284d460405160405180910390a2565b6001600360146101000a81548160ff0219169083600181111561050e5761050d610ac2565b5b021790555060007f000000000000000000000000000000000000000000000000000000000000000073ffffffffffffffffffffffffffffffffffffffff16635d3b1d307f00000000000000000000000000000000000000000000000000000000000000007f000000000000000000000000000000000000000000000000000000000000000060037f000000000000000000000000000000000000000000000000000000000000000060016040518663ffffffff1660e01b81526004016105d8959493929190610fee565b602060405180830381600087803b1580156105f257600080fd5b505af1158015610606573d6000803e3d6000fd5b505050506040513d601f19601f8201168201806040525081019061062a9190611056565b9050807f4549df58a7d250647f89fe30531ce89d7a67e57126a474379b9e64af2678520360405160405180910390a2505050565b600060606000806001805490501190506000804711905060007f0000000000000000000000000000000000000000000000000000000000000000600054426106a691906110b2565b1190508280156106b35750815b80156106bc5750805b94505050509250929050565b600260009054906101000a900473ffffffffffffffffffffffffffffffffffffffff1681565b600060018281548110610704576107036110e6565b5b9060005260206000200160009054906101000a900473ffffffffffffffffffffffffffffffffffffffff169050919050565b60008054905090565b6000600360009054906101000a900473ffffffffffffffffffffffffffffffffffffffff16905090565b6000600180549050905090565b600060018054905082600081518110610792576107916110e6565b5b60200260200101516107a49190611144565b9050600181815481106107ba576107b96110e6565b5b9060005260206000200160009054906101000a900473ffffffffffffffffffffffffffffffffffffffff16600360006101000a81548173ffffffffffffffffffffffffffffffffffffffff021916908373ffffffffffffffffffffffffffffffffffffffff1602179055506000600360009054906101000a900473ffffffffffffffffffffffffffffffffffffffff1673ffffffffffffffffffffffffffffffffffffffff164760405161086d906111a6565b60006040518083038185875af1925050503d80600081146108aa576040519150601f19603f3d011682016040523d82523d6000602084013e6108af565b606091505b50509050806108ea576040517fa1d04b3900000000000000000000000000000000000000000000000000000000815260040160405180910390fd5b426000819055506000600360146101000a81548160ff0219169083600181111561091757610916610ac2565b5b0217905550600067ffffffffffffffff81111561093757610936610baa565b5b6040519080825280602002602001820160405280156109655781602001602082028036833780820191505090505b506001908051906020019061097b9291906109e7565b50600360009054906101000a900473ffffffffffffffffffffffffffffffffffffffff1673ffffffffffffffffffffffffffffffffffffffff167f5b690ec4a06fe979403046eaeea5b3ce38524683c3001f662c8b5a829632f7df60405160405180910390a250505050565b828054828255906000526020600020908101928215610a60579160200282015b82811115610a5f5782518260006101000a81548173ffffffffffffffffffffffffffffffffffffffff021916908373ffffffffffffffffffffffffffffffffffffffff16021790555091602001919060010190610a07565b5b509050610a6d9190610a71565b5090565b5b80821115610a8a576000816000905550600101610a72565b5090565b6000819050919050565b610aa181610a8e565b82525050565b6000602082019050610abc6000830184610a98565b92915050565b7f4e487b7100000000000000000000000000000000000000000000000000000000600052602160045260246000fd5b60028110610b0257610b01610ac2565b5b50565b6000819050610b1382610af1565b919050565b6000610b2382610b05565b9050919050565b610b3381610b18565b82525050565b6000602082019050610b4e6000830184610b2a565b92915050565b6000604051905090565b600080fd5b600080fd5b610b7181610a8e565b8114610b7c57600080fd5b50565b600081359050610b8e81610b68565b92915050565b600080fd5b6000601f19601f8301169050919050565b7f4e487b7100000000000000000000000000000000000000000000000000000000600052604160045260246000fd5b610be282610b99565b810181811067ffffffffffffffff82111715610c0157610c00610baa565b5b80604052505050565b6000610c14610b54565b9050610c208282610bd9565b919050565b600067ffffffffffffffff821115610c4057610c3f610baa565b5b602082029050602081019050919050565b600080fd5b6000610c69610c6484610c25565b610c0a565b90508083825260208201905060208402830185811115610c8c57610c8b610c51565b5b835b81811015610cb55780610ca18882610b7f565b845260208401935050602081019050610c8e565b5050509392505050565b600082601f830112610cd457610cd3610b94565b5b8135610ce4848260208601610c56565b91505092915050565b60008060408385031215610d0457610d03610b5e565b5b6000610d1285828601610b7f565b925050602083013567ffffffffffffffff811115610d3357610d32610b63565b5b610d3f85828601610cbf565b9150509250929050565b600080fd5b60008083601f840112610d6457610d63610b94565b5b8235905067ffffffffffffffff811115610d8157610d80610d49565b5b602083019150836001820283011115610d9d57610d9c610c51565b5b9250929050565b60008060208385031215610dbb57610dba610b5e565b5b600083013567ffffffffffffffff811115610dd957610dd8610b63565b5b610de585828601610d4e565b92509250509250929050565b60008115159050919050565b610e0681610df1565b82525050565b600081519050919050565b600082825260208201905092915050565b60005b83811015610e46578082015181840152602081019050610e2b565b83811115610e55576000848401525b50505050565b6000610e6682610e0c565b610e708185610e17565b9350610e80818560208601610e28565b610e8981610b99565b840191505092915050565b6000604082019050610ea96000830185610dfd565b8181036020830152610ebb8184610e5b565b90509392505050565b600073ffffffffffffffffffffffffffffffffffffffff82169050919050565b6000610eef82610ec4565b9050919050565b610eff81610ee4565b82525050565b6000602082019050610f1a6000830184610ef6565b92915050565b600060208284031215610f3657610f35610b5e565b5b6000610f4484828501610b7f565b91505092915050565b6000604082019050610f626000830185610ef6565b610f6f6020830184610ef6565b9392505050565b6000819050919050565b610f8981610f76565b82525050565b600067ffffffffffffffff82169050919050565b610fac81610f8f565b82525050565b600061ffff82169050919050565b610fc981610fb2565b82525050565b600063ffffffff82169050919050565b610fe881610fcf565b82525050565b600060a0820190506110036000830188610f80565b6110106020830187610fa3565b61101d6040830186610fc0565b61102a6060830185610fdf565b6110376080830184610fdf565b9695505050505050565b60008151905061105081610b68565b92915050565b60006020828403121561106c5761106b610b5e565b5b600061107a84828501611041565b91505092915050565b7f4e487b7100000000000000000000000000000000000000000000000000000000600052601160045260246000fd5b60006110bd82610a8e565b91506110c883610a8e565b9250828210156110db576110da611083565b5b828203905092915050565b7f4e487b7100000000000000000000000000000000000000000000000000000000600052603260045260246000fd5b7f4e487b7100000000000000000000000000000000000000000000000000000000600052601260045260246000fd5b600061114f82610a8e565b915061115a83610a8e565b92508261116a57611169611115565b5b828206905092915050565b600081905092915050565b50565b6000611190600083611175565b915061119b82611180565b600082019050919050565b60006111b182611183565b915081905091905056fea2646970667358221220ae34343fdfc9231fb4fe51d7ce0f7009367a652d082b5fc1cdbe63c069a64d5264736f6c63430008090033",
          "opcodes": "PUSH2 0x160 PUSH1 0x40 MSTORE CALLVALUE DUP1 ISZERO PUSH3 0x12 JUMPI PUSH1 0x0 DUP1 REVERT JUMPDEST POP PUSH1 0x40 MLOAD PUSH3 0x15FA CODESIZE SUB DUP1 PUSH3 0x15FA DUP4 CODECOPY DUP2 DUP2 ADD PUSH1 0x40 MSTORE DUP2 ADD SWAP1 PUSH3 0x38 SWAP2 SWAP1 PUSH3 0x2D5 JUMP JUMPDEST DUP6 DUP1 PUSH20 0xFFFFFFFFFFFFFFFFFFFFFFFFFFFFFFFFFFFFFFFF AND PUSH1 0x80 DUP2 PUSH20 0xFFFFFFFFFFFFFFFFFFFFFFFFFFFFFFFFFFFFFFFF AND DUP2 MSTORE POP POP POP DUP6 PUSH20 0xFFFFFFFFFFFFFFFFFFFFFFFFFFFFFFFFFFFFFFFF AND PUSH1 0xA0 DUP2 PUSH20 0xFFFFFFFFFFFFFFFFFFFFFFFFFFFFFFFFFFFFFFFF AND DUP2 MSTORE POP POP DUP5 PUSH1 0xC0 DUP2 DUP2 MSTORE POP POP DUP4 PUSH4 0xFFFFFFFF AND PUSH1 0xE0 DUP2 PUSH4 0xFFFFFFFF AND DUP2 MSTORE POP POP DUP3 PUSH8 0xFFFFFFFFFFFFFFFF AND PUSH2 0x100 DUP2 PUSH8 0xFFFFFFFFFFFFFFFF AND DUP2 MSTORE POP POP DUP2 PUSH2 0x140 DUP2 DUP2 MSTORE POP POP DUP1 PUSH2 0x120 DUP2 DUP2 MSTORE POP POP TIMESTAMP PUSH1 0x0 DUP2 SWAP1 SSTORE POP PUSH1 0x0 PUSH1 0x3 PUSH1 0x14 PUSH2 0x100 EXP DUP2 SLOAD DUP2 PUSH1 0xFF MUL NOT AND SWAP1 DUP4 PUSH1 0x1 DUP2 GT ISZERO PUSH3 0x11D JUMPI PUSH3 0x11C PUSH3 0x371 JUMP JUMPDEST JUMPDEST MUL OR SWAP1 SSTORE POP CALLER PUSH1 0x2 PUSH1 0x0 PUSH2 0x100 EXP DUP2 SLOAD DUP2 PUSH20 0xFFFFFFFFFFFFFFFFFFFFFFFFFFFFFFFFFFFFFFFF MUL NOT AND SWAP1 DUP4 PUSH20 0xFFFFFFFFFFFFFFFFFFFFFFFFFFFFFFFFFFFFFFFF AND MUL OR SWAP1 SSTORE POP POP POP POP POP POP POP PUSH3 0x3A0 JUMP JUMPDEST PUSH1 0x0 DUP1 REVERT JUMPDEST PUSH1 0x0 PUSH20 0xFFFFFFFFFFFFFFFFFFFFFFFFFFFFFFFFFFFFFFFF DUP3 AND SWAP1 POP SWAP2 SWAP1 POP JUMP JUMPDEST PUSH1 0x0 PUSH3 0x1A1 DUP3 PUSH3 0x174 JUMP JUMPDEST SWAP1 POP SWAP2 SWAP1 POP JUMP JUMPDEST PUSH3 0x1B3 DUP2 PUSH3 0x194 JUMP JUMPDEST DUP2 EQ PUSH3 0x1BF JUMPI PUSH1 0x0 DUP1 REVERT JUMPDEST POP JUMP JUMPDEST PUSH1 0x0 DUP2 MLOAD SWAP1 POP PUSH3 0x1D3 DUP2 PUSH3 0x1A8 JUMP JUMPDEST SWAP3 SWAP2 POP POP JUMP JUMPDEST PUSH1 0x0 DUP2 SWAP1 POP SWAP2 SWAP1 POP JUMP JUMPDEST PUSH3 0x1EE DUP2 PUSH3 0x1D9 JUMP JUMPDEST DUP2 EQ PUSH3 0x1FA JUMPI PUSH1 0x0 DUP1 REVERT JUMPDEST POP JUMP JUMPDEST PUSH1 0x0 DUP2 MLOAD SWAP1 POP PUSH3 0x20E DUP2 PUSH3 0x1E3 JUMP JUMPDEST SWAP3 SWAP2 POP POP JUMP JUMPDEST PUSH1 0x0 PUSH4 0xFFFFFFFF DUP3 AND SWAP1 POP SWAP2 SWAP1 POP JUMP JUMPDEST PUSH3 0x22F DUP2 PUSH3 0x214 JUMP JUMPDEST DUP2 EQ PUSH3 0x23B JUMPI PUSH1 0x0 DUP1 REVERT JUMPDEST POP JUMP JUMPDEST PUSH1 0x0 DUP2 MLOAD SWAP1 POP PUSH3 0x24F DUP2 PUSH3 0x224 JUMP JUMPDEST SWAP3 SWAP2 POP POP JUMP JUMPDEST PUSH1 0x0 PUSH8 0xFFFFFFFFFFFFFFFF DUP3 AND SWAP1 POP SWAP2 SWAP1 POP JUMP JUMPDEST PUSH3 0x274 DUP2 PUSH3 0x255 JUMP JUMPDEST DUP2 EQ PUSH3 0x280 JUMPI PUSH1 0x0 DUP1 REVERT JUMPDEST POP JUMP JUMPDEST PUSH1 0x0 DUP2 MLOAD SWAP1 POP PUSH3 0x294 DUP2 PUSH3 0x269 JUMP JUMPDEST SWAP3 SWAP2 POP POP JUMP JUMPDEST PUSH1 0x0 DUP2 SWAP1 POP SWAP2 SWAP1 POP JUMP JUMPDEST PUSH3 0x2AF DUP2 PUSH3 0x29A JUMP JUMPDEST DUP2 EQ PUSH3 0x2BB JUMPI PUSH1 0x0 DUP1 REVERT JUMPDEST POP JUMP JUMPDEST PUSH1 0x0 DUP2 MLOAD SWAP1 POP PUSH3 0x2CF DUP2 PUSH3 0x2A4 JUMP JUMPDEST SWAP3 SWAP2 POP POP JUMP JUMPDEST PUSH1 0x0 DUP1 PUSH1 0x0 DUP1 PUSH1 0x0 DUP1 PUSH1 0xC0 DUP8 DUP10 SUB SLT ISZERO PUSH3 0x2F5 JUMPI PUSH3 0x2F4 PUSH3 0x16F JUMP JUMPDEST JUMPDEST PUSH1 0x0 PUSH3 0x305 DUP10 DUP3 DUP11 ADD PUSH3 0x1C2 JUMP JUMPDEST SWAP7 POP POP PUSH1 0x20 PUSH3 0x318 DUP10 DUP3 DUP11 ADD PUSH3 0x1FD JUMP JUMPDEST SWAP6 POP POP PUSH1 0x40 PUSH3 0x32B DUP10 DUP3 DUP11 ADD PUSH3 0x23E JUMP JUMPDEST SWAP5 POP POP PUSH1 0x60 PUSH3 0x33E DUP10 DUP3 DUP11 ADD PUSH3 0x283 JUMP JUMPDEST SWAP4 POP POP PUSH1 0x80 PUSH3 0x351 DUP10 DUP3 DUP11 ADD PUSH3 0x2BE JUMP JUMPDEST SWAP3 POP POP PUSH1 0xA0 PUSH3 0x364 DUP10 DUP3 DUP11 ADD PUSH3 0x2BE JUMP JUMPDEST SWAP2 POP POP SWAP3 SWAP6 POP SWAP3 SWAP6 POP SWAP3 SWAP6 JUMP JUMPDEST PUSH32 0x4E487B7100000000000000000000000000000000000000000000000000000000 PUSH1 0x0 MSTORE PUSH1 0x21 PUSH1 0x4 MSTORE PUSH1 0x24 PUSH1 0x0 REVERT JUMPDEST PUSH1 0x80 MLOAD PUSH1 0xA0 MLOAD PUSH1 0xC0 MLOAD PUSH1 0xE0 MLOAD PUSH2 0x100 MLOAD PUSH2 0x120 MLOAD PUSH2 0x140 MLOAD PUSH2 0x11F1 PUSH3 0x409 PUSH1 0x0 CODECOPY PUSH1 0x0 DUP2 DUP2 PUSH2 0x27E ADD MSTORE PUSH2 0x37B ADD MSTORE PUSH1 0x0 PUSH2 0x679 ADD MSTORE PUSH1 0x0 PUSH2 0x574 ADD MSTORE PUSH1 0x0 PUSH2 0x597 ADD MSTORE PUSH1 0x0 PUSH2 0x553 ADD MSTORE PUSH1 0x0 PUSH2 0x517 ADD MSTORE PUSH1 0x0 DUP2 DUP2 PUSH2 0x2BB ADD MSTORE PUSH2 0x30F ADD MSTORE PUSH2 0x11F1 PUSH1 0x0 RETURN INVALID PUSH1 0x80 PUSH1 0x40 MSTORE PUSH1 0x4 CALLDATASIZE LT PUSH2 0x9C JUMPI PUSH1 0x0 CALLDATALOAD PUSH1 0xE0 SHR DUP1 PUSH4 0x6E04FF0D GT PUSH2 0x64 JUMPI DUP1 PUSH4 0x6E04FF0D EQ PUSH2 0x153 JUMPI DUP1 PUSH4 0x8DA5CB5B EQ PUSH2 0x191 JUMPI DUP1 PUSH4 0xE55AE4E8 EQ PUSH2 0x1BC JUMPI DUP1 PUSH4 0xF43B52CB EQ PUSH2 0x1F9 JUMPI DUP1 PUSH4 0xF88649A1 EQ PUSH2 0x224 JUMPI DUP1 PUSH4 0xFD6673F5 EQ PUSH2 0x24F JUMPI PUSH2 0x9C JUMP JUMPDEST DUP1 PUSH4 0x9BC33A7 EQ PUSH2 0xA1 JUMPI DUP1 PUSH4 0x115CBAF5 EQ PUSH2 0xCC JUMPI DUP1 PUSH4 0x1FE543E3 EQ PUSH2 0xF7 JUMPI DUP1 PUSH4 0x2CFCC539 EQ PUSH2 0x120 JUMPI DUP1 PUSH4 0x4585E33B EQ PUSH2 0x12A JUMPI JUMPDEST PUSH1 0x0 DUP1 REVERT JUMPDEST CALLVALUE DUP1 ISZERO PUSH2 0xAD JUMPI PUSH1 0x0 DUP1 REVERT JUMPDEST POP PUSH2 0xB6 PUSH2 0x27A JUMP JUMPDEST PUSH1 0x40 MLOAD PUSH2 0xC3 SWAP2 SWAP1 PUSH2 0xAA7 JUMP JUMPDEST PUSH1 0x40 MLOAD DUP1 SWAP2 SUB SWAP1 RETURN JUMPDEST CALLVALUE DUP1 ISZERO PUSH2 0xD8 JUMPI PUSH1 0x0 DUP1 REVERT JUMPDEST POP PUSH2 0xE1 PUSH2 0x2A2 JUMP JUMPDEST PUSH1 0x40 MLOAD PUSH2 0xEE SWAP2 SWAP1 PUSH2 0xB39 JUMP JUMPDEST PUSH1 0x40 MLOAD DUP1 SWAP2 SUB SWAP1 RETURN JUMPDEST CALLVALUE DUP1 ISZERO PUSH2 0x103 JUMPI PUSH1 0x0 DUP1 REVERT JUMPDEST POP PUSH2 0x11E PUSH1 0x4 DUP1 CALLDATASIZE SUB DUP2 ADD SWAP1 PUSH2 0x119 SWAP2 SWAP1 PUSH2 0xCED JUMP JUMPDEST PUSH2 0x2B9 JUMP JUMPDEST STOP JUMPDEST PUSH2 0x128 PUSH2 0x379 JUMP JUMPDEST STOP JUMPDEST CALLVALUE DUP1 ISZERO PUSH2 0x136 JUMPI PUSH1 0x0 DUP1 REVERT JUMPDEST POP PUSH2 0x151 PUSH1 0x4 DUP1 CALLDATASIZE SUB DUP2 ADD SWAP1 PUSH2 0x14C SWAP2 SWAP1 PUSH2 0xDA4 JUMP JUMPDEST PUSH2 0x4E8 JUMP JUMPDEST STOP JUMPDEST CALLVALUE DUP1 ISZERO PUSH2 0x15F JUMPI PUSH1 0x0 DUP1 REVERT JUMPDEST POP PUSH2 0x17A PUSH1 0x4 DUP1 CALLDATASIZE SUB DUP2 ADD SWAP1 PUSH2 0x175 SWAP2 SWAP1 PUSH2 0xDA4 JUMP JUMPDEST PUSH2 0x65E JUMP JUMPDEST PUSH1 0x40 MLOAD PUSH2 0x188 SWAP3 SWAP2 SWAP1 PUSH2 0xE94 JUMP JUMPDEST PUSH1 0x40 MLOAD DUP1 SWAP2 SUB SWAP1 RETURN JUMPDEST CALLVALUE DUP1 ISZERO PUSH2 0x19D JUMPI PUSH1 0x0 DUP1 REVERT JUMPDEST POP PUSH2 0x1A6 PUSH2 0x6C8 JUMP JUMPDEST PUSH1 0x40 MLOAD PUSH2 0x1B3 SWAP2 SWAP1 PUSH2 0xF05 JUMP JUMPDEST PUSH1 0x40 MLOAD DUP1 SWAP2 SUB SWAP1 RETURN JUMPDEST CALLVALUE DUP1 ISZERO PUSH2 0x1C8 JUMPI PUSH1 0x0 DUP1 REVERT JUMPDEST POP PUSH2 0x1E3 PUSH1 0x4 DUP1 CALLDATASIZE SUB DUP2 ADD SWAP1 PUSH2 0x1DE SWAP2 SWAP1 PUSH2 0xF20 JUMP JUMPDEST PUSH2 0x6EE JUMP JUMPDEST PUSH1 0x40 MLOAD PUSH2 0x1F0 SWAP2 SWAP1 PUSH2 0xF05 JUMP JUMPDEST PUSH1 0x40 MLOAD DUP1 SWAP2 SUB SWAP1 RETURN JUMPDEST CALLVALUE DUP1 ISZERO PUSH2 0x205 JUMPI PUSH1 0x0 DUP1 REVERT JUMPDEST POP PUSH2 0x20E PUSH2 0x736 JUMP JUMPDEST PUSH1 0x40 MLOAD PUSH2 0x21B SWAP2 SWAP1 PUSH2 0xAA7 JUMP JUMPDEST PUSH1 0x40 MLOAD DUP1 SWAP2 SUB SWAP1 RETURN JUMPDEST CALLVALUE DUP1 ISZERO PUSH2 0x230 JUMPI PUSH1 0x0 DUP1 REVERT JUMPDEST POP PUSH2 0x239 PUSH2 0x73F JUMP JUMPDEST PUSH1 0x40 MLOAD PUSH2 0x246 SWAP2 SWAP1 PUSH2 0xF05 JUMP JUMPDEST PUSH1 0x40 MLOAD DUP1 SWAP2 SUB SWAP1 RETURN JUMPDEST CALLVALUE DUP1 ISZERO PUSH2 0x25B JUMPI PUSH1 0x0 DUP1 REVERT JUMPDEST POP PUSH2 0x264 PUSH2 0x769 JUMP JUMPDEST PUSH1 0x40 MLOAD PUSH2 0x271 SWAP2 SWAP1 PUSH2 0xAA7 JUMP JUMPDEST PUSH1 0x40 MLOAD DUP1 SWAP2 SUB SWAP1 RETURN JUMPDEST PUSH1 0x0 PUSH32 0x0 SWAP1 POP SWAP1 JUMP JUMPDEST PUSH1 0x0 PUSH1 0x3 PUSH1 0x14 SWAP1 SLOAD SWAP1 PUSH2 0x100 EXP SWAP1 DIV PUSH1 0xFF AND SWAP1 POP SWAP1 JUMP JUMPDEST PUSH32 0x0 PUSH20 0xFFFFFFFFFFFFFFFFFFFFFFFFFFFFFFFFFFFFFFFF AND CALLER PUSH20 0xFFFFFFFFFFFFFFFFFFFFFFFFFFFFFFFFFFFFFFFF AND EQ PUSH2 0x36B JUMPI CALLER PUSH32 0x0 PUSH1 0x40 MLOAD PUSH32 0x1CF993F400000000000000000000000000000000000000000000000000000000 DUP2 MSTORE PUSH1 0x4 ADD PUSH2 0x362 SWAP3 SWAP2 SWAP1 PUSH2 0xF4D JUMP JUMPDEST PUSH1 0x40 MLOAD DUP1 SWAP2 SUB SWAP1 REVERT JUMPDEST PUSH2 0x375 DUP3 DUP3 PUSH2 0x776 JUMP JUMPDEST POP POP JUMP JUMPDEST PUSH32 0x0 CALLVALUE LT ISZERO PUSH2 0x3D3 JUMPI PUSH1 0x40 MLOAD PUSH32 0x9894879B00000000000000000000000000000000000000000000000000000000 DUP2 MSTORE PUSH1 0x4 ADD PUSH1 0x40 MLOAD DUP1 SWAP2 SUB SWAP1 REVERT JUMPDEST PUSH1 0x1 DUP1 DUP2 GT ISZERO PUSH2 0x3E6 JUMPI PUSH2 0x3E5 PUSH2 0xAC2 JUMP JUMPDEST JUMPDEST PUSH1 0x3 PUSH1 0x14 SWAP1 SLOAD SWAP1 PUSH2 0x100 EXP SWAP1 DIV PUSH1 0xFF AND PUSH1 0x1 DUP2 GT ISZERO PUSH2 0x408 JUMPI PUSH2 0x407 PUSH2 0xAC2 JUMP JUMPDEST JUMPDEST EQ ISZERO PUSH2 0x440 JUMPI PUSH1 0x40 MLOAD PUSH32 0x1425571C00000000000000000000000000000000000000000000000000000000 DUP2 MSTORE PUSH1 0x4 ADD PUSH1 0x40 MLOAD DUP1 SWAP2 SUB SWAP1 REVERT JUMPDEST PUSH1 0x1 CALLER SWAP1 DUP1 PUSH1 0x1 DUP2 SLOAD ADD DUP1 DUP3 SSTORE DUP1 SWAP2 POP POP PUSH1 0x1 SWAP1 SUB SWAP1 PUSH1 0x0 MSTORE PUSH1 0x20 PUSH1 0x0 KECCAK256 ADD PUSH1 0x0 SWAP1 SWAP2 SWAP1 SWAP2 SWAP1 SWAP2 PUSH2 0x100 EXP DUP2 SLOAD DUP2 PUSH20 0xFFFFFFFFFFFFFFFFFFFFFFFFFFFFFFFFFFFFFFFF MUL NOT AND SWAP1 DUP4 PUSH20 0xFFFFFFFFFFFFFFFFFFFFFFFFFFFFFFFFFFFFFFFF AND MUL OR SWAP1 SSTORE POP CALLER PUSH20 0xFFFFFFFFFFFFFFFFFFFFFFFFFFFFFFFFFFFFFFFF AND PUSH32 0x805E1D667BDDB8A95F0F09880CF94F403FB596CE79928D9F29B74203BA284D4 PUSH1 0x40 MLOAD PUSH1 0x40 MLOAD DUP1 SWAP2 SUB SWAP1 LOG2 JUMP JUMPDEST PUSH1 0x1 PUSH1 0x3 PUSH1 0x14 PUSH2 0x100 EXP DUP2 SLOAD DUP2 PUSH1 0xFF MUL NOT AND SWAP1 DUP4 PUSH1 0x1 DUP2 GT ISZERO PUSH2 0x50E JUMPI PUSH2 0x50D PUSH2 0xAC2 JUMP JUMPDEST JUMPDEST MUL OR SWAP1 SSTORE POP PUSH1 0x0 PUSH32 0x0 PUSH20 0xFFFFFFFFFFFFFFFFFFFFFFFFFFFFFFFFFFFFFFFF AND PUSH4 0x5D3B1D30 PUSH32 0x0 PUSH32 0x0 PUSH1 0x3 PUSH32 0x0 PUSH1 0x1 PUSH1 0x40 MLOAD DUP7 PUSH4 0xFFFFFFFF AND PUSH1 0xE0 SHL DUP2 MSTORE PUSH1 0x4 ADD PUSH2 0x5D8 SWAP6 SWAP5 SWAP4 SWAP3 SWAP2 SWAP1 PUSH2 0xFEE JUMP JUMPDEST PUSH1 0x20 PUSH1 0x40 MLOAD DUP1 DUP4 SUB DUP2 PUSH1 0x0 DUP8 DUP1 EXTCODESIZE ISZERO DUP1 ISZERO PUSH2 0x5F2 JUMPI PUSH1 0x0 DUP1 REVERT JUMPDEST POP GAS CALL ISZERO DUP1 ISZERO PUSH2 0x606 JUMPI RETURNDATASIZE PUSH1 0x0 DUP1 RETURNDATACOPY RETURNDATASIZE PUSH1 0x0 REVERT JUMPDEST POP POP POP POP PUSH1 0x40 MLOAD RETURNDATASIZE PUSH1 0x1F NOT PUSH1 0x1F DUP3 ADD AND DUP3 ADD DUP1 PUSH1 0x40 MSTORE POP DUP2 ADD SWAP1 PUSH2 0x62A SWAP2 SWAP1 PUSH2 0x1056 JUMP JUMPDEST SWAP1 POP DUP1 PUSH32 0x4549DF58A7D250647F89FE30531CE89D7A67E57126A474379B9E64AF26785203 PUSH1 0x40 MLOAD PUSH1 0x40 MLOAD DUP1 SWAP2 SUB SWAP1 LOG2 POP POP POP JUMP JUMPDEST PUSH1 0x0 PUSH1 0x60 PUSH1 0x0 DUP1 PUSH1 0x1 DUP1 SLOAD SWAP1 POP GT SWAP1 POP PUSH1 0x0 DUP1 SELFBALANCE GT SWAP1 POP PUSH1 0x0 PUSH32 0x0 PUSH1 0x0 SLOAD TIMESTAMP PUSH2 0x6A6 SWAP2 SWAP1 PUSH2 0x10B2 JUMP JUMPDEST GT SWAP1 POP DUP3 DUP1 ISZERO PUSH2 0x6B3 JUMPI POP DUP2 JUMPDEST DUP1 ISZERO PUSH2 0x6BC JUMPI POP DUP1 JUMPDEST SWAP5 POP POP POP POP SWAP3 POP SWAP3 SWAP1 POP JUMP JUMPDEST PUSH1 0x2 PUSH1 0x0 SWAP1 SLOAD SWAP1 PUSH2 0x100 EXP SWAP1 DIV PUSH20 0xFFFFFFFFFFFFFFFFFFFFFFFFFFFFFFFFFFFFFFFF AND DUP2 JUMP JUMPDEST PUSH1 0x0 PUSH1 0x1 DUP3 DUP2 SLOAD DUP2 LT PUSH2 0x704 JUMPI PUSH2 0x703 PUSH2 0x10E6 JUMP JUMPDEST JUMPDEST SWAP1 PUSH1 0x0 MSTORE PUSH1 0x20 PUSH1 0x0 KECCAK256 ADD PUSH1 0x0 SWAP1 SLOAD SWAP1 PUSH2 0x100 EXP SWAP1 DIV PUSH20 0xFFFFFFFFFFFFFFFFFFFFFFFFFFFFFFFFFFFFFFFF AND SWAP1 POP SWAP2 SWAP1 POP JUMP JUMPDEST PUSH1 0x0 DUP1 SLOAD SWAP1 POP SWAP1 JUMP JUMPDEST PUSH1 0x0 PUSH1 0x3 PUSH1 0x0 SWAP1 SLOAD SWAP1 PUSH2 0x100 EXP SWAP1 DIV PUSH20 0xFFFFFFFFFFFFFFFFFFFFFFFFFFFFFFFFFFFFFFFF AND SWAP1 POP SWAP1 JUMP JUMPDEST PUSH1 0x0 PUSH1 0x1 DUP1 SLOAD SWAP1 POP SWAP1 POP SWAP1 JUMP JUMPDEST PUSH1 0x0 PUSH1 0x1 DUP1 SLOAD SWAP1 POP DUP3 PUSH1 0x0 DUP2 MLOAD DUP2 LT PUSH2 0x792 JUMPI PUSH2 0x791 PUSH2 0x10E6 JUMP JUMPDEST JUMPDEST PUSH1 0x20 MUL PUSH1 0x20 ADD ADD MLOAD PUSH2 0x7A4 SWAP2 SWAP1 PUSH2 0x1144 JUMP JUMPDEST SWAP1 POP PUSH1 0x1 DUP2 DUP2 SLOAD DUP2 LT PUSH2 0x7BA JUMPI PUSH2 0x7B9 PUSH2 0x10E6 JUMP JUMPDEST JUMPDEST SWAP1 PUSH1 0x0 MSTORE PUSH1 0x20 PUSH1 0x0 KECCAK256 ADD PUSH1 0x0 SWAP1 SLOAD SWAP1 PUSH2 0x100 EXP SWAP1 DIV PUSH20 0xFFFFFFFFFFFFFFFFFFFFFFFFFFFFFFFFFFFFFFFF AND PUSH1 0x3 PUSH1 0x0 PUSH2 0x100 EXP DUP2 SLOAD DUP2 PUSH20 0xFFFFFFFFFFFFFFFFFFFFFFFFFFFFFFFFFFFFFFFF MUL NOT AND SWAP1 DUP4 PUSH20 0xFFFFFFFFFFFFFFFFFFFFFFFFFFFFFFFFFFFFFFFF AND MUL OR SWAP1 SSTORE POP PUSH1 0x0 PUSH1 0x3 PUSH1 0x0 SWAP1 SLOAD SWAP1 PUSH2 0x100 EXP SWAP1 DIV PUSH20 0xFFFFFFFFFFFFFFFFFFFFFFFFFFFFFFFFFFFFFFFF AND PUSH20 0xFFFFFFFFFFFFFFFFFFFFFFFFFFFFFFFFFFFFFFFF AND SELFBALANCE PUSH1 0x40 MLOAD PUSH2 0x86D SWAP1 PUSH2 0x11A6 JUMP JUMPDEST PUSH1 0x0 PUSH1 0x40 MLOAD DUP1 DUP4 SUB DUP2 DUP6 DUP8 GAS CALL SWAP3 POP POP POP RETURNDATASIZE DUP1 PUSH1 0x0 DUP2 EQ PUSH2 0x8AA JUMPI PUSH1 0x40 MLOAD SWAP2 POP PUSH1 0x1F NOT PUSH1 0x3F RETURNDATASIZE ADD AND DUP3 ADD PUSH1 0x40 MSTORE RETURNDATASIZE DUP3 MSTORE RETURNDATASIZE PUSH1 0x0 PUSH1 0x20 DUP5 ADD RETURNDATACOPY PUSH2 0x8AF JUMP JUMPDEST PUSH1 0x60 SWAP2 POP JUMPDEST POP POP SWAP1 POP DUP1 PUSH2 0x8EA JUMPI PUSH1 0x40 MLOAD PUSH32 0xA1D04B3900000000000000000000000000000000000000000000000000000000 DUP2 MSTORE PUSH1 0x4 ADD PUSH1 0x40 MLOAD DUP1 SWAP2 SUB SWAP1 REVERT JUMPDEST TIMESTAMP PUSH1 0x0 DUP2 SWAP1 SSTORE POP PUSH1 0x0 PUSH1 0x3 PUSH1 0x14 PUSH2 0x100 EXP DUP2 SLOAD DUP2 PUSH1 0xFF MUL NOT AND SWAP1 DUP4 PUSH1 0x1 DUP2 GT ISZERO PUSH2 0x917 JUMPI PUSH2 0x916 PUSH2 0xAC2 JUMP JUMPDEST JUMPDEST MUL OR SWAP1 SSTORE POP PUSH1 0x0 PUSH8 0xFFFFFFFFFFFFFFFF DUP2 GT ISZERO PUSH2 0x937 JUMPI PUSH2 0x936 PUSH2 0xBAA JUMP JUMPDEST JUMPDEST PUSH1 0x40 MLOAD SWAP1 DUP1 DUP3 MSTORE DUP1 PUSH1 0x20 MUL PUSH1 0x20 ADD DUP3 ADD PUSH1 0x40 MSTORE DUP1 ISZERO PUSH2 0x965 JUMPI DUP2 PUSH1 0x20 ADD PUSH1 0x20 DUP3 MUL DUP1 CALLDATASIZE DUP4 CALLDATACOPY DUP1 DUP3 ADD SWAP2 POP POP SWAP1 POP JUMPDEST POP PUSH1 0x1 SWAP1 DUP1 MLOAD SWAP1 PUSH1 0x20 ADD SWAP1 PUSH2 0x97B SWAP3 SWAP2 SWAP1 PUSH2 0x9E7 JUMP JUMPDEST POP PUSH1 0x3 PUSH1 0x0 SWAP1 SLOAD SWAP1 PUSH2 0x100 EXP SWAP1 DIV PUSH20 0xFFFFFFFFFFFFFFFFFFFFFFFFFFFFFFFFFFFFFFFF AND PUSH20 0xFFFFFFFFFFFFFFFFFFFFFFFFFFFFFFFFFFFFFFFF AND PUSH32 0x5B690EC4A06FE979403046EAEEA5B3CE38524683C3001F662C8B5A829632F7DF PUSH1 0x40 MLOAD PUSH1 0x40 MLOAD DUP1 SWAP2 SUB SWAP1 LOG2 POP POP POP POP JUMP JUMPDEST DUP3 DUP1 SLOAD DUP3 DUP3 SSTORE SWAP1 PUSH1 0x0 MSTORE PUSH1 0x20 PUSH1 0x0 KECCAK256 SWAP1 DUP2 ADD SWAP3 DUP3 ISZERO PUSH2 0xA60 JUMPI SWAP2 PUSH1 0x20 MUL DUP3 ADD JUMPDEST DUP3 DUP2 GT ISZERO PUSH2 0xA5F JUMPI DUP3 MLOAD DUP3 PUSH1 0x0 PUSH2 0x100 EXP DUP2 SLOAD DUP2 PUSH20 0xFFFFFFFFFFFFFFFFFFFFFFFFFFFFFFFFFFFFFFFF MUL NOT AND SWAP1 DUP4 PUSH20 0xFFFFFFFFFFFFFFFFFFFFFFFFFFFFFFFFFFFFFFFF AND MUL OR SWAP1 SSTORE POP SWAP2 PUSH1 0x20 ADD SWAP2 SWAP1 PUSH1 0x1 ADD SWAP1 PUSH2 0xA07 JUMP JUMPDEST JUMPDEST POP SWAP1 POP PUSH2 0xA6D SWAP2 SWAP1 PUSH2 0xA71 JUMP JUMPDEST POP SWAP1 JUMP JUMPDEST JUMPDEST DUP1 DUP3 GT ISZERO PUSH2 0xA8A JUMPI PUSH1 0x0 DUP2 PUSH1 0x0 SWAP1 SSTORE POP PUSH1 0x1 ADD PUSH2 0xA72 JUMP JUMPDEST POP SWAP1 JUMP JUMPDEST PUSH1 0x0 DUP2 SWAP1 POP SWAP2 SWAP1 POP JUMP JUMPDEST PUSH2 0xAA1 DUP2 PUSH2 0xA8E JUMP JUMPDEST DUP3 MSTORE POP POP JUMP JUMPDEST PUSH1 0x0 PUSH1 0x20 DUP3 ADD SWAP1 POP PUSH2 0xABC PUSH1 0x0 DUP4 ADD DUP5 PUSH2 0xA98 JUMP JUMPDEST SWAP3 SWAP2 POP POP JUMP JUMPDEST PUSH32 0x4E487B7100000000000000000000000000000000000000000000000000000000 PUSH1 0x0 MSTORE PUSH1 0x21 PUSH1 0x4 MSTORE PUSH1 0x24 PUSH1 0x0 REVERT JUMPDEST PUSH1 0x2 DUP2 LT PUSH2 0xB02 JUMPI PUSH2 0xB01 PUSH2 0xAC2 JUMP JUMPDEST JUMPDEST POP JUMP JUMPDEST PUSH1 0x0 DUP2 SWAP1 POP PUSH2 0xB13 DUP3 PUSH2 0xAF1 JUMP JUMPDEST SWAP2 SWAP1 POP JUMP JUMPDEST PUSH1 0x0 PUSH2 0xB23 DUP3 PUSH2 0xB05 JUMP JUMPDEST SWAP1 POP SWAP2 SWAP1 POP JUMP JUMPDEST PUSH2 0xB33 DUP2 PUSH2 0xB18 JUMP JUMPDEST DUP3 MSTORE POP POP JUMP JUMPDEST PUSH1 0x0 PUSH1 0x20 DUP3 ADD SWAP1 POP PUSH2 0xB4E PUSH1 0x0 DUP4 ADD DUP5 PUSH2 0xB2A JUMP JUMPDEST SWAP3 SWAP2 POP POP JUMP JUMPDEST PUSH1 0x0 PUSH1 0x40 MLOAD SWAP1 POP SWAP1 JUMP JUMPDEST PUSH1 0x0 DUP1 REVERT JUMPDEST PUSH1 0x0 DUP1 REVERT JUMPDEST PUSH2 0xB71 DUP2 PUSH2 0xA8E JUMP JUMPDEST DUP2 EQ PUSH2 0xB7C JUMPI PUSH1 0x0 DUP1 REVERT JUMPDEST POP JUMP JUMPDEST PUSH1 0x0 DUP2 CALLDATALOAD SWAP1 POP PUSH2 0xB8E DUP2 PUSH2 0xB68 JUMP JUMPDEST SWAP3 SWAP2 POP POP JUMP JUMPDEST PUSH1 0x0 DUP1 REVERT JUMPDEST PUSH1 0x0 PUSH1 0x1F NOT PUSH1 0x1F DUP4 ADD AND SWAP1 POP SWAP2 SWAP1 POP JUMP JUMPDEST PUSH32 0x4E487B7100000000000000000000000000000000000000000000000000000000 PUSH1 0x0 MSTORE PUSH1 0x41 PUSH1 0x4 MSTORE PUSH1 0x24 PUSH1 0x0 REVERT JUMPDEST PUSH2 0xBE2 DUP3 PUSH2 0xB99 JUMP JUMPDEST DUP2 ADD DUP2 DUP2 LT PUSH8 0xFFFFFFFFFFFFFFFF DUP3 GT OR ISZERO PUSH2 0xC01 JUMPI PUSH2 0xC00 PUSH2 0xBAA JUMP JUMPDEST JUMPDEST DUP1 PUSH1 0x40 MSTORE POP POP POP JUMP JUMPDEST PUSH1 0x0 PUSH2 0xC14 PUSH2 0xB54 JUMP JUMPDEST SWAP1 POP PUSH2 0xC20 DUP3 DUP3 PUSH2 0xBD9 JUMP JUMPDEST SWAP2 SWAP1 POP JUMP JUMPDEST PUSH1 0x0 PUSH8 0xFFFFFFFFFFFFFFFF DUP3 GT ISZERO PUSH2 0xC40 JUMPI PUSH2 0xC3F PUSH2 0xBAA JUMP JUMPDEST JUMPDEST PUSH1 0x20 DUP3 MUL SWAP1 POP PUSH1 0x20 DUP2 ADD SWAP1 POP SWAP2 SWAP1 POP JUMP JUMPDEST PUSH1 0x0 DUP1 REVERT JUMPDEST PUSH1 0x0 PUSH2 0xC69 PUSH2 0xC64 DUP5 PUSH2 0xC25 JUMP JUMPDEST PUSH2 0xC0A JUMP JUMPDEST SWAP1 POP DUP1 DUP4 DUP3 MSTORE PUSH1 0x20 DUP3 ADD SWAP1 POP PUSH1 0x20 DUP5 MUL DUP4 ADD DUP6 DUP2 GT ISZERO PUSH2 0xC8C JUMPI PUSH2 0xC8B PUSH2 0xC51 JUMP JUMPDEST JUMPDEST DUP4 JUMPDEST DUP2 DUP2 LT ISZERO PUSH2 0xCB5 JUMPI DUP1 PUSH2 0xCA1 DUP9 DUP3 PUSH2 0xB7F JUMP JUMPDEST DUP5 MSTORE PUSH1 0x20 DUP5 ADD SWAP4 POP POP PUSH1 0x20 DUP2 ADD SWAP1 POP PUSH2 0xC8E JUMP JUMPDEST POP POP POP SWAP4 SWAP3 POP POP POP JUMP JUMPDEST PUSH1 0x0 DUP3 PUSH1 0x1F DUP4 ADD SLT PUSH2 0xCD4 JUMPI PUSH2 0xCD3 PUSH2 0xB94 JUMP JUMPDEST JUMPDEST DUP2 CALLDATALOAD PUSH2 0xCE4 DUP5 DUP3 PUSH1 0x20 DUP7 ADD PUSH2 0xC56 JUMP JUMPDEST SWAP2 POP POP SWAP3 SWAP2 POP POP JUMP JUMPDEST PUSH1 0x0 DUP1 PUSH1 0x40 DUP4 DUP6 SUB SLT ISZERO PUSH2 0xD04 JUMPI PUSH2 0xD03 PUSH2 0xB5E JUMP JUMPDEST JUMPDEST PUSH1 0x0 PUSH2 0xD12 DUP6 DUP3 DUP7 ADD PUSH2 0xB7F JUMP JUMPDEST SWAP3 POP POP PUSH1 0x20 DUP4 ADD CALLDATALOAD PUSH8 0xFFFFFFFFFFFFFFFF DUP2 GT ISZERO PUSH2 0xD33 JUMPI PUSH2 0xD32 PUSH2 0xB63 JUMP JUMPDEST JUMPDEST PUSH2 0xD3F DUP6 DUP3 DUP7 ADD PUSH2 0xCBF JUMP JUMPDEST SWAP2 POP POP SWAP3 POP SWAP3 SWAP1 POP JUMP JUMPDEST PUSH1 0x0 DUP1 REVERT JUMPDEST PUSH1 0x0 DUP1 DUP4 PUSH1 0x1F DUP5 ADD SLT PUSH2 0xD64 JUMPI PUSH2 0xD63 PUSH2 0xB94 JUMP JUMPDEST JUMPDEST DUP3 CALLDATALOAD SWAP1 POP PUSH8 0xFFFFFFFFFFFFFFFF DUP2 GT ISZERO PUSH2 0xD81 JUMPI PUSH2 0xD80 PUSH2 0xD49 JUMP JUMPDEST JUMPDEST PUSH1 0x20 DUP4 ADD SWAP2 POP DUP4 PUSH1 0x1 DUP3 MUL DUP4 ADD GT ISZERO PUSH2 0xD9D JUMPI PUSH2 0xD9C PUSH2 0xC51 JUMP JUMPDEST JUMPDEST SWAP3 POP SWAP3 SWAP1 POP JUMP JUMPDEST PUSH1 0x0 DUP1 PUSH1 0x20 DUP4 DUP6 SUB SLT ISZERO PUSH2 0xDBB JUMPI PUSH2 0xDBA PUSH2 0xB5E JUMP JUMPDEST JUMPDEST PUSH1 0x0 DUP4 ADD CALLDATALOAD PUSH8 0xFFFFFFFFFFFFFFFF DUP2 GT ISZERO PUSH2 0xDD9 JUMPI PUSH2 0xDD8 PUSH2 0xB63 JUMP JUMPDEST JUMPDEST PUSH2 0xDE5 DUP6 DUP3 DUP7 ADD PUSH2 0xD4E JUMP JUMPDEST SWAP3 POP SWAP3 POP POP SWAP3 POP SWAP3 SWAP1 POP JUMP JUMPDEST PUSH1 0x0 DUP2 ISZERO ISZERO SWAP1 POP SWAP2 SWAP1 POP JUMP JUMPDEST PUSH2 0xE06 DUP2 PUSH2 0xDF1 JUMP JUMPDEST DUP3 MSTORE POP POP JUMP JUMPDEST PUSH1 0x0 DUP2 MLOAD SWAP1 POP SWAP2 SWAP1 POP JUMP JUMPDEST PUSH1 0x0 DUP3 DUP3 MSTORE PUSH1 0x20 DUP3 ADD SWAP1 POP SWAP3 SWAP2 POP POP JUMP JUMPDEST PUSH1 0x0 JUMPDEST DUP4 DUP2 LT ISZERO PUSH2 0xE46 JUMPI DUP1 DUP3 ADD MLOAD DUP2 DUP5 ADD MSTORE PUSH1 0x20 DUP2 ADD SWAP1 POP PUSH2 0xE2B JUMP JUMPDEST DUP4 DUP2 GT ISZERO PUSH2 0xE55 JUMPI PUSH1 0x0 DUP5 DUP5 ADD MSTORE JUMPDEST POP POP POP POP JUMP JUMPDEST PUSH1 0x0 PUSH2 0xE66 DUP3 PUSH2 0xE0C JUMP JUMPDEST PUSH2 0xE70 DUP2 DUP6 PUSH2 0xE17 JUMP JUMPDEST SWAP4 POP PUSH2 0xE80 DUP2 DUP6 PUSH1 0x20 DUP7 ADD PUSH2 0xE28 JUMP JUMPDEST PUSH2 0xE89 DUP2 PUSH2 0xB99 JUMP JUMPDEST DUP5 ADD SWAP2 POP POP SWAP3 SWAP2 POP POP JUMP JUMPDEST PUSH1 0x0 PUSH1 0x40 DUP3 ADD SWAP1 POP PUSH2 0xEA9 PUSH1 0x0 DUP4 ADD DUP6 PUSH2 0xDFD JUMP JUMPDEST DUP2 DUP2 SUB PUSH1 0x20 DUP4 ADD MSTORE PUSH2 0xEBB DUP2 DUP5 PUSH2 0xE5B JUMP JUMPDEST SWAP1 POP SWAP4 SWAP3 POP POP POP JUMP JUMPDEST PUSH1 0x0 PUSH20 0xFFFFFFFFFFFFFFFFFFFFFFFFFFFFFFFFFFFFFFFF DUP3 AND SWAP1 POP SWAP2 SWAP1 POP JUMP JUMPDEST PUSH1 0x0 PUSH2 0xEEF DUP3 PUSH2 0xEC4 JUMP JUMPDEST SWAP1 POP SWAP2 SWAP1 POP JUMP JUMPDEST PUSH2 0xEFF DUP2 PUSH2 0xEE4 JUMP JUMPDEST DUP3 MSTORE POP POP JUMP JUMPDEST PUSH1 0x0 PUSH1 0x20 DUP3 ADD SWAP1 POP PUSH2 0xF1A PUSH1 0x0 DUP4 ADD DUP5 PUSH2 0xEF6 JUMP JUMPDEST SWAP3 SWAP2 POP POP JUMP JUMPDEST PUSH1 0x0 PUSH1 0x20 DUP3 DUP5 SUB SLT ISZERO PUSH2 0xF36 JUMPI PUSH2 0xF35 PUSH2 0xB5E JUMP JUMPDEST JUMPDEST PUSH1 0x0 PUSH2 0xF44 DUP5 DUP3 DUP6 ADD PUSH2 0xB7F JUMP JUMPDEST SWAP2 POP POP SWAP3 SWAP2 POP POP JUMP JUMPDEST PUSH1 0x0 PUSH1 0x40 DUP3 ADD SWAP1 POP PUSH2 0xF62 PUSH1 0x0 DUP4 ADD DUP6 PUSH2 0xEF6 JUMP JUMPDEST PUSH2 0xF6F PUSH1 0x20 DUP4 ADD DUP5 PUSH2 0xEF6 JUMP JUMPDEST SWAP4 SWAP3 POP POP POP JUMP JUMPDEST PUSH1 0x0 DUP2 SWAP1 POP SWAP2 SWAP1 POP JUMP JUMPDEST PUSH2 0xF89 DUP2 PUSH2 0xF76 JUMP JUMPDEST DUP3 MSTORE POP POP JUMP JUMPDEST PUSH1 0x0 PUSH8 0xFFFFFFFFFFFFFFFF DUP3 AND SWAP1 POP SWAP2 SWAP1 POP JUMP JUMPDEST PUSH2 0xFAC DUP2 PUSH2 0xF8F JUMP JUMPDEST DUP3 MSTORE POP POP JUMP JUMPDEST PUSH1 0x0 PUSH2 0xFFFF DUP3 AND SWAP1 POP SWAP2 SWAP1 POP JUMP JUMPDEST PUSH2 0xFC9 DUP2 PUSH2 0xFB2 JUMP JUMPDEST DUP3 MSTORE POP POP JUMP JUMPDEST PUSH1 0x0 PUSH4 0xFFFFFFFF DUP3 AND SWAP1 POP SWAP2 SWAP1 POP JUMP JUMPDEST PUSH2 0xFE8 DUP2 PUSH2 0xFCF JUMP JUMPDEST DUP3 MSTORE POP POP JUMP JUMPDEST PUSH1 0x0 PUSH1 0xA0 DUP3 ADD SWAP1 POP PUSH2 0x1003 PUSH1 0x0 DUP4 ADD DUP9 PUSH2 0xF80 JUMP JUMPDEST PUSH2 0x1010 PUSH1 0x20 DUP4 ADD DUP8 PUSH2 0xFA3 JUMP JUMPDEST PUSH2 0x101D PUSH1 0x40 DUP4 ADD DUP7 PUSH2 0xFC0 JUMP JUMPDEST PUSH2 0x102A PUSH1 0x60 DUP4 ADD DUP6 PUSH2 0xFDF JUMP JUMPDEST PUSH2 0x1037 PUSH1 0x80 DUP4 ADD DUP5 PUSH2 0xFDF JUMP JUMPDEST SWAP7 SWAP6 POP POP POP POP POP POP JUMP JUMPDEST PUSH1 0x0 DUP2 MLOAD SWAP1 POP PUSH2 0x1050 DUP2 PUSH2 0xB68 JUMP JUMPDEST SWAP3 SWAP2 POP POP JUMP JUMPDEST PUSH1 0x0 PUSH1 0x20 DUP3 DUP5 SUB SLT ISZERO PUSH2 0x106C JUMPI PUSH2 0x106B PUSH2 0xB5E JUMP JUMPDEST JUMPDEST PUSH1 0x0 PUSH2 0x107A DUP5 DUP3 DUP6 ADD PUSH2 0x1041 JUMP JUMPDEST SWAP2 POP POP SWAP3 SWAP2 POP POP JUMP JUMPDEST PUSH32 0x4E487B7100000000000000000000000000000000000000000000000000000000 PUSH1 0x0 MSTORE PUSH1 0x11 PUSH1 0x4 MSTORE PUSH1 0x24 PUSH1 0x0 REVERT JUMPDEST PUSH1 0x0 PUSH2 0x10BD DUP3 PUSH2 0xA8E JUMP JUMPDEST SWAP2 POP PUSH2 0x10C8 DUP4 PUSH2 0xA8E JUMP JUMPDEST SWAP3 POP DUP3 DUP3 LT ISZERO PUSH2 0x10DB JUMPI PUSH2 0x10DA PUSH2 0x1083 JUMP JUMPDEST JUMPDEST DUP3 DUP3 SUB SWAP1 POP SWAP3 SWAP2 POP POP JUMP JUMPDEST PUSH32 0x4E487B7100000000000000000000000000000000000000000000000000000000 PUSH1 0x0 MSTORE PUSH1 0x32 PUSH1 0x4 MSTORE PUSH1 0x24 PUSH1 0x0 REVERT JUMPDEST PUSH32 0x4E487B7100000000000000000000000000000000000000000000000000000000 PUSH1 0x0 MSTORE PUSH1 0x12 PUSH1 0x4 MSTORE PUSH1 0x24 PUSH1 0x0 REVERT JUMPDEST PUSH1 0x0 PUSH2 0x114F DUP3 PUSH2 0xA8E JUMP JUMPDEST SWAP2 POP PUSH2 0x115A DUP4 PUSH2 0xA8E JUMP JUMPDEST SWAP3 POP DUP3 PUSH2 0x116A JUMPI PUSH2 0x1169 PUSH2 0x1115 JUMP JUMPDEST JUMPDEST DUP3 DUP3 MOD SWAP1 POP SWAP3 SWAP2 POP POP JUMP JUMPDEST PUSH1 0x0 DUP2 SWAP1 POP SWAP3 SWAP2 POP POP JUMP JUMPDEST POP JUMP JUMPDEST PUSH1 0x0 PUSH2 0x1190 PUSH1 0x0 DUP4 PUSH2 0x1175 JUMP JUMPDEST SWAP2 POP PUSH2 0x119B DUP3 PUSH2 0x1180 JUMP JUMPDEST PUSH1 0x0 DUP3 ADD SWAP1 POP SWAP2 SWAP1 POP JUMP JUMPDEST PUSH1 0x0 PUSH2 0x11B1 DUP3 PUSH2 0x1183 JUMP JUMPDEST SWAP2 POP DUP2 SWAP1 POP SWAP2 SWAP1 POP JUMP INVALID LOG2 PUSH5 0x6970667358 0x22 SLT KECCAK256 0xAE CALLVALUE CALLVALUE EXTCODEHASH 0xDF 0xC9 0x23 0x1F 0xB4 INVALID MLOAD 0xD7 0xCE 0xF PUSH17 0x9367A652D082B5FC1CDBE63C069A64D52 PUSH5 0x736F6C6343 STOP ADDMOD MULMOD STOP CALLER "
        },
        "gasEstimates": {
          "creation": {
            "codeDepositCost": "918600",
            "executionCost": "infinite",
            "totalCost": "infinite"
          },
          "external": {
            "checkUpkeep(bytes)": "infinite",
            "enterRaffle()": "infinite",
            "getEntranceFee()": "infinite",
            "getLastWinner()": "2610",
            "getLatestTimestamp()": "2503",
            "getNumberOfPlayers()": "2555",
            "getPlayer(uint256)": "5011",
            "getRaffleState()": "2641",
            "owner()": "2536",
            "performUpkeep(bytes)": "infinite",
            "rawFulfillRandomWords(uint256,uint256[])": "infinite"
          },
          "internal": {
            "fulfillRandomWords(uint256,uint256[] memory)": "infinite"
          }
        },
        "methodIdentifiers": {
          "checkUpkeep(bytes)": "6e04ff0d",
          "enterRaffle()": "2cfcc539",
          "getEntranceFee()": "09bc33a7",
          "getLastWinner()": "f88649a1",
          "getLatestTimestamp()": "f43b52cb",
          "getNumberOfPlayers()": "fd6673f5",
          "getPlayer(uint256)": "e55ae4e8",
          "getRaffleState()": "115cbaf5",
          "owner()": "8da5cb5b",
          "performUpkeep(bytes)": "4585e33b",
          "rawFulfillRandomWords(uint256,uint256[])": "1fe543e3"
        }
      },
      "storageLayout": {
        "storage": [
          {
            "astId": 241,
            "contract": "contracts/Raffle.sol:Raffle",
            "label": "s_lastTimestamp",
            "offset": 0,
            "slot": "0",
            "type": "t_uint256"
          },
          {
            "astId": 246,
            "contract": "contracts/Raffle.sol:Raffle",
            "label": "s_players",
            "offset": 0,
            "slot": "1",
            "type": "t_array(t_address)dyn_storage"
          },
          {
            "astId": 248,
            "contract": "contracts/Raffle.sol:Raffle",
            "label": "owner",
            "offset": 0,
            "slot": "2",
            "type": "t_address"
          },
          {
            "astId": 250,
            "contract": "contracts/Raffle.sol:Raffle",
            "label": "s_lastWinner",
            "offset": 0,
            "slot": "3",
            "type": "t_address_payable"
          },
          {
            "astId": 253,
            "contract": "contracts/Raffle.sol:Raffle",
            "label": "raffleState",
            "offset": 20,
            "slot": "3",
            "type": "t_enum(RaffleState)222"
          }
        ],
        "types": {
          "t_address": {
            "encoding": "inplace",
            "label": "address",
            "numberOfBytes": "20"
          },
          "t_address_payable": {
            "encoding": "inplace",
            "label": "address payable",
            "numberOfBytes": "20"
          },
          "t_array(t_address)dyn_storage": {
            "base": "t_address",
            "encoding": "dynamic_array",
            "label": "address[]",
            "numberOfBytes": "32"
          },
          "t_enum(RaffleState)222": {
            "encoding": "inplace",
            "label": "enum Raffle.RaffleState",
            "numberOfBytes": "1"
          },
          "t_uint256": {
            "encoding": "inplace",
            "label": "uint256",
            "numberOfBytes": "32"
          }
        }
      },
      "userdoc": {
        "kind": "user",
        "methods": {},
        "version": 1
      }
    }
  }
}