{
  "_format": "hh-sol-artifact-1",
  "contractName": "Raffle",
  "sourceName": "contracts/Raffle.sol",
  "abi": [
    {
      "inputs": [
        {
          "internalType": "address",
          "name": "vrfCoordinatorAddress",
          "type": "address"
        },
        {
          "internalType": "bytes32",
          "name": "keyHash",
          "type": "bytes32"
        },
        {
          "internalType": "uint32",
          "name": "callbackGasLimit",
          "type": "uint32"
        },
        {
          "internalType": "uint64",
          "name": "subId",
          "type": "uint64"
        },
        {
          "internalType": "uint256",
          "name": "entranceFee",
          "type": "uint256"
        },
        {
          "internalType": "uint256",
          "name": "interval",
          "type": "uint256"
        }
      ],
      "stateMutability": "nonpayable",
      "type": "constructor"
    },
    {
      "inputs": [
        {
          "internalType": "address",
          "name": "have",
          "type": "address"
        },
        {
          "internalType": "address",
          "name": "want",
          "type": "address"
        }
      ],
      "name": "OnlyCoordinatorCanFulfill",
      "type": "error"
    },
    {
      "inputs": [],
      "name": "OnlySimulatedBackend",
      "type": "error"
    },
    {
      "inputs": [],
      "name": "Raffle__NotEnoughETH",
      "type": "error"
    },
    {
      "inputs": [],
      "name": "Raffle__NotOpen",
      "type": "error"
    },
    {
      "inputs": [],
      "name": "Raffle__TransferFailed",
      "type": "error"
    },
    {
      "anonymous": false,
      "inputs": [
        {
          "indexed": true,
          "internalType": "address",
          "name": "player",
          "type": "address"
        }
      ],
      "name": "RaffleEnter",
      "type": "event"
    },
    {
      "anonymous": false,
      "inputs": [
        {
          "indexed": true,
          "internalType": "uint256",
          "name": "requestId",
          "type": "uint256"
        }
      ],
      "name": "RaffleWinnerRequested",
      "type": "event"
    },
    {
      "anonymous": false,
      "inputs": [
        {
          "indexed": true,
          "internalType": "address",
          "name": "player",
          "type": "address"
        }
      ],
      "name": "WinnerPicked",
      "type": "event"
    },
    {
      "inputs": [
        {
          "internalType": "bytes",
          "name": "",
          "type": "bytes"
        }
      ],
      "name": "checkUpkeep",
      "outputs": [
        {
          "internalType": "bool",
          "name": "upkeepNeeeded",
          "type": "bool"
        },
        {
          "internalType": "bytes",
          "name": "",
          "type": "bytes"
        }
      ],
      "stateMutability": "view",
      "type": "function"
    },
    {
      "inputs": [],
      "name": "enterRaffle",
      "outputs": [],
      "stateMutability": "payable",
      "type": "function"
    },
    {
      "inputs": [],
      "name": "getEntranceFee",
      "outputs": [
        {
          "internalType": "uint256",
          "name": "",
          "type": "uint256"
        }
      ],
      "stateMutability": "view",
      "type": "function"
    },
    {
      "inputs": [],
      "name": "getLastWinner",
      "outputs": [
        {
          "internalType": "address",
          "name": "",
          "type": "address"
        }
      ],
      "stateMutability": "view",
      "type": "function"
    },
    {
      "inputs": [],
      "name": "getLatestTimestamp",
      "outputs": [
        {
          "internalType": "uint256",
          "name": "",
          "type": "uint256"
        }
      ],
      "stateMutability": "view",
      "type": "function"
    },
    {
      "inputs": [],
      "name": "getNumberOfPlayers",
      "outputs": [
        {
          "internalType": "uint256",
          "name": "",
          "type": "uint256"
        }
      ],
      "stateMutability": "view",
      "type": "function"
    },
    {
      "inputs": [
        {
          "internalType": "uint256",
          "name": "index",
          "type": "uint256"
        }
      ],
      "name": "getPlayer",
      "outputs": [
        {
          "internalType": "address",
          "name": "",
          "type": "address"
        }
      ],
      "stateMutability": "view",
      "type": "function"
    },
    {
      "inputs": [],
      "name": "getRaffleState",
      "outputs": [
        {
          "internalType": "enum Raffle.RaffleState",
          "name": "",
          "type": "uint8"
        }
      ],
      "stateMutability": "view",
      "type": "function"
    },
    {
      "inputs": [],
      "name": "owner",
      "outputs": [
        {
          "internalType": "address",
          "name": "",
          "type": "address"
        }
      ],
      "stateMutability": "view",
      "type": "function"
    },
    {
      "inputs": [
        {
          "internalType": "bytes",
          "name": "",
          "type": "bytes"
        }
      ],
      "name": "performUpkeep",
      "outputs": [],
      "stateMutability": "nonpayable",
      "type": "function"
    },
    {
      "inputs": [
        {
          "internalType": "uint256",
          "name": "requestId",
          "type": "uint256"
        },
        {
          "internalType": "uint256[]",
          "name": "randomWords",
          "type": "uint256[]"
        }
      ],
      "name": "rawFulfillRandomWords",
      "outputs": [],
      "stateMutability": "nonpayable",
      "type": "function"
    }
  ],
  "bytecode": "0x6101606040523480156200001257600080fd5b50604051620015fa380380620015fa8339818101604052810190620000389190620002d5565b858073ffffffffffffffffffffffffffffffffffffffff1660808173ffffffffffffffffffffffffffffffffffffffff1681525050508573ffffffffffffffffffffffffffffffffffffffff1660a08173ffffffffffffffffffffffffffffffffffffffff16815250508460c081815250508363ffffffff1660e08163ffffffff16815250508267ffffffffffffffff166101008167ffffffffffffffff1681525050816101408181525050806101208181525050426000819055506000600360146101000a81548160ff021916908360018111156200011d576200011c62000371565b5b021790555033600260006101000a81548173ffffffffffffffffffffffffffffffffffffffff021916908373ffffffffffffffffffffffffffffffffffffffff160217905550505050505050620003a0565b600080fd5b600073ffffffffffffffffffffffffffffffffffffffff82169050919050565b6000620001a18262000174565b9050919050565b620001b38162000194565b8114620001bf57600080fd5b50565b600081519050620001d381620001a8565b92915050565b6000819050919050565b620001ee81620001d9565b8114620001fa57600080fd5b50565b6000815190506200020e81620001e3565b92915050565b600063ffffffff82169050919050565b6200022f8162000214565b81146200023b57600080fd5b50565b6000815190506200024f8162000224565b92915050565b600067ffffffffffffffff82169050919050565b620002748162000255565b81146200028057600080fd5b50565b600081519050620002948162000269565b92915050565b6000819050919050565b620002af816200029a565b8114620002bb57600080fd5b50565b600081519050620002cf81620002a4565b92915050565b60008060008060008060c08789031215620002f557620002f46200016f565b5b60006200030589828a01620001c2565b96505060206200031889828a01620001fd565b95505060406200032b89828a016200023e565b94505060606200033e89828a0162000283565b93505060806200035189828a01620002be565b92505060a06200036489828a01620002be565b9150509295509295509295565b7f4e487b7100000000000000000000000000000000000000000000000000000000600052602160045260246000fd5b60805160a05160c05160e0516101005161012051610140516111f1620004096000396000818161027e015261037b01526000610679015260006105740152600061059701526000610553015260006105170152600081816102bb015261030f01526111f16000f3fe60806040526004361061009c5760003560e01c80636e04ff0d116100645780636e04ff0d146101535780638da5cb5b14610191578063e55ae4e8146101bc578063f43b52cb146101f9578063f88649a114610224578063fd6673f51461024f5761009c565b806309bc33a7146100a1578063115cbaf5146100cc5780631fe543e3146100f75780632cfcc539146101205780634585e33b1461012a575b600080fd5b3480156100ad57600080fd5b506100b661027a565b6040516100c39190610aa7565b60405180910390f35b3480156100d857600080fd5b506100e16102a2565b6040516100ee9190610b39565b60405180910390f35b34801561010357600080fd5b5061011e60048036038101906101199190610ced565b6102b9565b005b610128610379565b005b34801561013657600080fd5b50610151600480360381019061014c9190610da4565b6104e8565b005b34801561015f57600080fd5b5061017a60048036038101906101759190610da4565b61065e565b604051610188929190610e94565b60405180910390f35b34801561019d57600080fd5b506101a66106c8565b6040516101b39190610f05565b60405180910390f35b3480156101c857600080fd5b506101e360048036038101906101de9190610f20565b6106ee565b6040516101f09190610f05565b60405180910390f35b34801561020557600080fd5b5061020e610736565b60405161021b9190610aa7565b60405180910390f35b34801561023057600080fd5b5061023961073f565b6040516102469190610f05565b60405180910390f35b34801561025b57600080fd5b50610264610769565b6040516102719190610aa7565b60405180910390f35b60007f0000000000000000000000000000000000000000000000000000000000000000905090565b6000600360149054906101000a900460ff16905090565b7f000000000000000000000000000000000000000000000000000000000000000073ffffffffffffffffffffffffffffffffffffffff163373ffffffffffffffffffffffffffffffffffffffff161461036b57337f00000000000000000000000000000000000000000000000000000000000000006040517f1cf993f4000000000000000000000000000000000000000000000000000000008152600401610362929190610f4d565b60405180910390fd5b6103758282610776565b5050565b7f00000000000000000000000000000000000000000000000000000000000000003410156103d3576040517f9894879b00000000000000000000000000000000000000000000000000000000815260040160405180910390fd5b6001808111156103e6576103e5610ac2565b5b600360149054906101000a900460ff16600181111561040857610407610ac2565b5b1415610440576040517f1425571c00000000000000000000000000000000000000000000000000000000815260040160405180910390fd5b6001339080600181540180825580915050600190039060005260206000200160009091909190916101000a81548173ffffffffffffffffffffffffffffffffffffffff021916908373ffffffffffffffffffffffffffffffffffffffff1602179055503373ffffffffffffffffffffffffffffffffffffffff167f0805e1d667bddb8a95f0f09880cf94f403fb596ce79928d9f29b74203ba284d460405160405180910390a2565b6001600360146101000a81548160ff0219169083600181111561050e5761050d610ac2565b5b021790555060007f000000000000000000000000000000000000000000000000000000000000000073ffffffffffffffffffffffffffffffffffffffff16635d3b1d307f00000000000000000000000000000000000000000000000000000000000000007f000000000000000000000000000000000000000000000000000000000000000060037f000000000000000000000000000000000000000000000000000000000000000060016040518663ffffffff1660e01b81526004016105d8959493929190610fee565b602060405180830381600087803b1580156105f257600080fd5b505af1158015610606573d6000803e3d6000fd5b505050506040513d601f19601f8201168201806040525081019061062a9190611056565b9050807f4549df58a7d250647f89fe30531ce89d7a67e57126a474379b9e64af2678520360405160405180910390a2505050565b600060606000806001805490501190506000804711905060007f0000000000000000000000000000000000000000000000000000000000000000600054426106a691906110b2565b1190508280156106b35750815b80156106bc5750805b94505050509250929050565b600260009054906101000a900473ffffffffffffffffffffffffffffffffffffffff1681565b600060018281548110610704576107036110e6565b5b9060005260206000200160009054906101000a900473ffffffffffffffffffffffffffffffffffffffff169050919050565b60008054905090565b6000600360009054906101000a900473ffffffffffffffffffffffffffffffffffffffff16905090565b6000600180549050905090565b600060018054905082600081518110610792576107916110e6565b5b60200260200101516107a49190611144565b9050600181815481106107ba576107b96110e6565b5b9060005260206000200160009054906101000a900473ffffffffffffffffffffffffffffffffffffffff16600360006101000a81548173ffffffffffffffffffffffffffffffffffffffff021916908373ffffffffffffffffffffffffffffffffffffffff1602179055506000600360009054906101000a900473ffffffffffffffffffffffffffffffffffffffff1673ffffffffffffffffffffffffffffffffffffffff164760405161086d906111a6565b60006040518083038185875af1925050503d80600081146108aa576040519150601f19603f3d011682016040523d82523d6000602084013e6108af565b606091505b50509050806108ea576040517fa1d04b3900000000000000000000000000000000000000000000000000000000815260040160405180910390fd5b426000819055506000600360146101000a81548160ff0219169083600181111561091757610916610ac2565b5b0217905550600067ffffffffffffffff81111561093757610936610baa565b5b6040519080825280602002602001820160405280156109655781602001602082028036833780820191505090505b506001908051906020019061097b9291906109e7565b50600360009054906101000a900473ffffffffffffffffffffffffffffffffffffffff1673ffffffffffffffffffffffffffffffffffffffff167f5b690ec4a06fe979403046eaeea5b3ce38524683c3001f662c8b5a829632f7df60405160405180910390a250505050565b828054828255906000526020600020908101928215610a60579160200282015b82811115610a5f5782518260006101000a81548173ffffffffffffffffffffffffffffffffffffffff021916908373ffffffffffffffffffffffffffffffffffffffff16021790555091602001919060010190610a07565b5b509050610a6d9190610a71565b5090565b5b80821115610a8a576000816000905550600101610a72565b5090565b6000819050919050565b610aa181610a8e565b82525050565b6000602082019050610abc6000830184610a98565b92915050565b7f4e487b7100000000000000000000000000000000000000000000000000000000600052602160045260246000fd5b60028110610b0257610b01610ac2565b5b50565b6000819050610b1382610af1565b919050565b6000610b2382610b05565b9050919050565b610b3381610b18565b82525050565b6000602082019050610b4e6000830184610b2a565b92915050565b6000604051905090565b600080fd5b600080fd5b610b7181610a8e565b8114610b7c57600080fd5b50565b600081359050610b8e81610b68565b92915050565b600080fd5b6000601f19601f8301169050919050565b7f4e487b7100000000000000000000000000000000000000000000000000000000600052604160045260246000fd5b610be282610b99565b810181811067ffffffffffffffff82111715610c0157610c00610baa565b5b80604052505050565b6000610c14610b54565b9050610c208282610bd9565b919050565b600067ffffffffffffffff821115610c4057610c3f610baa565b5b602082029050602081019050919050565b600080fd5b6000610c69610c6484610c25565b610c0a565b90508083825260208201905060208402830185811115610c8c57610c8b610c51565b5b835b81811015610cb55780610ca18882610b7f565b845260208401935050602081019050610c8e565b5050509392505050565b600082601f830112610cd457610cd3610b94565b5b8135610ce4848260208601610c56565b91505092915050565b60008060408385031215610d0457610d03610b5e565b5b6000610d1285828601610b7f565b925050602083013567ffffffffffffffff811115610d3357610d32610b63565b5b610d3f85828601610cbf565b9150509250929050565b600080fd5b60008083601f840112610d6457610d63610b94565b5b8235905067ffffffffffffffff811115610d8157610d80610d49565b5b602083019150836001820283011115610d9d57610d9c610c51565b5b9250929050565b60008060208385031215610dbb57610dba610b5e565b5b600083013567ffffffffffffffff811115610dd957610dd8610b63565b5b610de585828601610d4e565b92509250509250929050565b60008115159050919050565b610e0681610df1565b82525050565b600081519050919050565b600082825260208201905092915050565b60005b83811015610e46578082015181840152602081019050610e2b565b83811115610e55576000848401525b50505050565b6000610e6682610e0c565b610e708185610e17565b9350610e80818560208601610e28565b610e8981610b99565b840191505092915050565b6000604082019050610ea96000830185610dfd565b8181036020830152610ebb8184610e5b565b90509392505050565b600073ffffffffffffffffffffffffffffffffffffffff82169050919050565b6000610eef82610ec4565b9050919050565b610eff81610ee4565b82525050565b6000602082019050610f1a6000830184610ef6565b92915050565b600060208284031215610f3657610f35610b5e565b5b6000610f4484828501610b7f565b91505092915050565b6000604082019050610f626000830185610ef6565b610f6f6020830184610ef6565b9392505050565b6000819050919050565b610f8981610f76565b82525050565b600067ffffffffffffffff82169050919050565b610fac81610f8f565b82525050565b600061ffff82169050919050565b610fc981610fb2565b82525050565b600063ffffffff82169050919050565b610fe881610fcf565b82525050565b600060a0820190506110036000830188610f80565b6110106020830187610fa3565b61101d6040830186610fc0565b61102a6060830185610fdf565b6110376080830184610fdf565b9695505050505050565b60008151905061105081610b68565b92915050565b60006020828403121561106c5761106b610b5e565b5b600061107a84828501611041565b91505092915050565b7f4e487b7100000000000000000000000000000000000000000000000000000000600052601160045260246000fd5b60006110bd82610a8e565b91506110c883610a8e565b9250828210156110db576110da611083565b5b828203905092915050565b7f4e487b7100000000000000000000000000000000000000000000000000000000600052603260045260246000fd5b7f4e487b7100000000000000000000000000000000000000000000000000000000600052601260045260246000fd5b600061114f82610a8e565b915061115a83610a8e565b92508261116a57611169611115565b5b828206905092915050565b600081905092915050565b50565b6000611190600083611175565b915061119b82611180565b600082019050919050565b60006111b182611183565b915081905091905056fea2646970667358221220ae34343fdfc9231fb4fe51d7ce0f7009367a652d082b5fc1cdbe63c069a64d5264736f6c63430008090033",
  "linkReferences": {},
  "deployedLinkReferences": {}
}